:020000040800F2
:10000000F808002001010008233600082F2C000802
:10001000213600085D0B0008B9410008000000000F
:10002000000000000000000000000000B3370008DE
:10003000190D000800000000453700080D3B0008BE
:100040001B0100081B0100081B0100081B01000820
:100050001B0100081B0100081B0100081B01000810
:100060001B0100081B0100081B0100081B01000800
:100070001B0100081B0100081B0100081B010008F0
:100080001B0100081B010008010900081B010008F2
:100090001B0100081B0100081B010008550D00088A
:1000A0001B0100081B0100081B0100081B010008C0
:1000B0001B0100081B0100081B0100081B010008B0
:1000C0001B0100081B0100081B0100081B010008A0
:1000D0001B0100081B0100081B0100082941000842
:1000E000310D00081B0100081B010008DFF80CD0CF
:1000F00000F068FB00480047ED4C0008F8080020BD
:100100000648804706480047FEE7FEE7FEE7FEE7B1
:10011000FEE7FEE7FEE7FEE7FEE7FEE7A53B000899
:10012000ED000008202A04DB203A21FA02F0002129
:10013000704721FA02F3D040C2F1200291400843F7
:1001400019467047D2B201E000F8012B491EFBD2DC
:1001500070470022F6E710B513460A4604461946D2
:10016000FFF7F0FF204610BD10B5044604E00B7801
:1001700000F8013B03B1491C521EF8D2204610BDC5
:10018000421C10F8011B0029FBD1801A704730B5C2
:1001900005460020034600E05B1C934205D2EC5C60
:1001A000C85C201A01D1002CF6D130BD70B50F4DBE
:1001B00000B92868002412E00A4602E09E4203D0FB
:1001C000521C1378002BF9D1DAB2224305D02BB19F
:1001D00024B1002100F8011B04E00446401C06780D
:1001E000002EE9D12860204670BD0000DC00002010
:1001F0000246C9B200E0401C0378002BFBD102E0AC
:1002000003788B4203D0401E9042F9D20020704701
:100210002DE9F04791460F4680460446002614F823
:10022000015B2DB100F08CF80068405DC007F6D18D
:100230002B2D02D02D2D18D0641E4A46394620465B
:1002400000F082F827B13968A14201D1C7F80080D7
:1002500071054FF002040BD54042002803DD03F086
:10026000BDFF0460A007BDE8F08746F48066E4E7C0
:100270000028F8DA03F0B2FF04606FF00040F2E704
:1002800096230022114600F0B7B800F0004230F08B
:1002900000400AD0C10D01F56071C0F3160042EABA
:1002A0000151C208400711437047002001467047C2
:1002B00030B50B46014600202022012409E021FA36
:1002C00002F59D4205D303FA02F5491B04FA02F533
:1002D0002844151EA2F10102F1DC30BD2DE9F05FCA
:1002E0000546002092469B468846064681464024A5
:1002F0001BE02846414647462246FFF713FF534678
:100300005A46C01A914110D311461846224600F0B1
:100310006BFA2D1A67EB01084F4622460120002197
:1003200000F062FA17EB00094E41201EA4F101040F
:10033000DFDC484631462A464346BDE8F09F0000D0
:1003400000487047FC4E00082DE9F05F82460078B7
:10035000002715468B460AF10104B946302801D022
:100360009DB113E014F8010B0127782803D0582819
:1003700001D045B10AE00DB1102D07D1002710259D
:1003800014F8010B02E0082500E00A250026B0461B
:100390000EE005FB080005FB06F1012701EB104606
:1003A0001FFA80F8B6F5803F00D3B94614F8010B68
:1003B000294600F03AFA0028EBDABBF1000F05D02D
:1003C0000FB1641E00E05446CBF80040B9F1000FB5
:1003D00006D003F003FF02210160C81EBDE8F09FB4
:1003E00048EA0640FAE70029A8BF7047401C4900C8
:1003F00008BF20F00100704710B4B0FA80FC00FA8A
:100400000CF050EA010404BF10BC704749B1CCF1B4
:10041000200421FA04F411FA0CF118BF0121214340
:100420000843A3EB0C01CB1D4FEA00614FEA1020FB
:1004300042BF002010BC704700EBC350104400299D
:10044000A4BF10BC7047401C490008BF20F0010049
:1004500010BC70472DE9FE4F804681EA0300C00FB3
:100460000C46009021F0004123F00045B8EB02005B
:10047000A94105D24046214690461C460B460246FD
:1004800023F00040104347D0270DC7F30A00C3F301
:100490000A510290401A019040286BDAC3F313000E
:1004A00040F4801B0098924620B10023D2EB030A4F
:1004B00063EB0B0B01985946C0F14002504600F027
:1004C00093F906460D4650465946019A00F09BF9AD
:1004D00010EB08006141002487EA115284EAE773B7
:1004E0001A4340D0009A62B3019A012A4FEA075298
:1004F00015DC001B61EB02014FF0004202EA0752DB
:10050000CDE90042001C41F5801132462B4600F037
:10051000A9F903B0BDE8F08F40462146F9E7001B7A
:1005200061EB0201001C41F5801300185B412018AB
:10053000A2F5001747EB030140EAD570B6196D41EB
:1005400011E06D084FEA360645EAC0754FEA0752DA
:10055000001B61EB0201001C41F5801149084FEAC4
:1005600030000019514132462B4603B0BDE8F04F30
:1005700000F069B90098012240000023D0EB02028C
:1005800063EBE073009821464FEAE074B8EB00009B
:1005900061EB0401E9E783F000435BE781F0004190
:1005A00058E72DE9FE4F81EA030404F0004421F0EE
:1005B000004100944FF0000B23F0004350EA010487
:1005C0005ED052EA03045BD0C3F30A54C1F30A5568
:1005D0002C44A4F2F3340194A0FB0254C1F31301A0
:1005E00041F48011C3F3130343F4801301FB02446D
:1005F00000FB034E840A970A44EA815447EA835772
:10060000A4FB076802958D0A05FB07854FEA932C2A
:1006100004FB0C542705029D4FEA065847EA16379B
:10062000B5EB08056EEB070C870E920E47EA8117B3
:1006300042EA8312A7FB0201B6EB0B0164EB000454
:100640002B0D43EA0C335E1844EB1C50DA4651463E
:10065000E7FB0201C5F313044FEA0B3343EA1453DB
:100660004FEA0432019C43EA0603A4F10C0402940D
:10067000009CCDE900B400F0F5F803B0BDE8F08FC0
:1006800000200146F9E72DE9F04D81EA030404F06A
:10069000004B21F0004514464FF0000A23F00041C2
:1006A00050EA050220D054EA01021DD0C5F30A57D2
:1006B0000246C5F31303C1F31300C1F30A5640F415
:1006C000801543F48013A7EB0608101BD64608F2EA
:1006D000FD3873EB050002D308F1010801E0921820
:1006E0005B41B8F1000F03DA00200146BDE8F08D50
:1006F00000204FF48011064684460EE0171B73EB72
:10070000050705D3121B63EB050306434CEA010CF6
:1007100049084FEA300092185B4150EA0107EDD1D9
:1007200052EA030012D082EA040083EA050108437A
:1007300005D0101BAB4106D20122002306E00022A7
:100740004FF0004302E06FF0010253101AEB060075
:100750004CEB085110EB0A0041EB0B01BDE8F04DEA
:1007600000F071B8C1F30A52C1F3130140F2FF3334
:1007700041F480119A4202DA00200146704740F2AB
:1007800033439A42A2F2334202DC5242FFF7CABC20
:1007900000F02AB830B5041E71F1000404DB4FF0FC
:1007A0000044404264EB0101141E73F1000405DBB8
:1007B0001C464FF00043524263EB0403994208BFCA
:1007C000904230BD064C074D06E0E06840F0010362
:1007D00094E8070098471034AC42F6D3FFF78AFC40
:1007E000004F0008204F0008202A04DB203A00FABE
:1007F00002F1002070479140C2F1200320FA03F378
:10080000194390407047202A06DBCB17203A41FA63
:1008100002F043EAE07306E041FA02F3D040C2F18D
:10082000200291400843194670473A2800D23038D8
:1008300020F02002412A01D3A2F13700884201D3DF
:100840004FF0FF30704710B5141E73F1000408DA42
:10085000401C41F1000192185B411A4301D120F084
:10086000010010BD2DE9F04D92469B4611B1B1FA41
:1008700081F202E0B0FA80F220329046FFF7B4FF36
:1008800004460F4640EA0A0041EA0B0153465A4625
:10089000084313D0114653EA010019D0C8F14002B1
:1008A0005046FFF73FFC05460E4650465946424625
:1008B000FFF79AFF084305D0012004E0204639469F
:1008C000BDE8F08D0020054346EAE0762C4337432F
:1008D0000A986305E40AA0EB08000022FD0A44EA36
:1008E00047540A3002D500200146E9E701051019F6
:1008F0006941DDE9084500196941BDE8F04DA2E70D
:10090000014800F0CABD0000E400002070B50446B4
:1009100000688168C943C9071CD1816821F00101C1
:10092000816001F007F805460FE000BF01F002F812
:10093000401B022809D9A06A40F01000A062E06ABA
:1009400040F00100E062012070BD20688068C04373
:10095000C007EBD0002070BDF8B500260446009615
:1009600000688168C943C90728D0816841F0010146
:100970008160134813490068B0FBF1F000E0401EAD
:1009800000900028FBD100F0D5FF054611E000BF24
:1009900000F0D0FF401B02280BD9A06A40F01000E5
:1009A000A062E06A40F00100E06284F82460012067
:1009B000F8BD20688068C043C007E9D10020F8BDB9
:1009C000D400002040420F0070B5214C0546606BFA
:1009D00040F6E441484340F6FF76B0FBF6F0FFF7FF
:1009E0004FFCE061A06B40F6E4414843B0FBF6F0F9
:1009F000FFF746FC2062022216A12846FFF7C7FB3C
:100A000080B97DB1E069FFF740FC02460B4612A0B9
:100A100003F0D4FB206AFFF738FC02460B4614A013
:100A200003F0CCFB032217A12846FFF7B0FB40B927
:100A30003DB1616B14A003F0C1FBA16B19A003F0E1
:100A4000BDFB2846BDE8704002221EA1FFF79FBBF8
:100A50006C00002076000000496E70757420566F9F
:100A60006C746167653A202566200A0D000000005D
:100A700042415420566F6C746167653A20256620A8
:100A80000A0D00006164630025692041444320434E
:100A90004831284D61696E20506F77657229200AB0
:100AA0000D0000002569204144432043483228427C
:100AB00061636B7570204261747465727929200AD4
:100AC0000D0000006E63000070B5214C4FF08041B6
:100AD000A069486300F016FB04F13C0000F0BEF989
:100AE00004F14600FFF770FFB4F90800194D18B182
:100AF000012806D1012200E000220821284600F04A
:100B000012FFB4F9040018B1012806D1012200E057
:100B100000224021284600F006FFB4F9060018B173
:100B2000012806D1012200E000228021284600F0A1
:100B3000FAFEB4F90A10084819B1012907D10122B7
:100B400000E00022BDE87040012100F0ECBE70BD65
:100B50006C00002000080140000C0140FEE700008E
:100B60002DE9F041030020D0204D00261E48B5F9A4
:100B70000E200124012B1AD0022B16D1002914D0EB
:100B8000012912D11A491B4B1B4FDFF870C02C8270
:100B9000012A1DD00C601C603C60CCF80040EC8049
:100BA0000122802100F0BFFEEC81BDE8F081002928
:100BB000FBD00129F9D12C82012A04D02C810122F9
:100BC000AC804021EEE72E810022AE80402107E07C
:100BD0000E601E603E60CCF80060EE800022802136
:100BE00000F0A1FEEE81E0E7000801406C0000206B
:100BF0002800002024000020200000201C000020ED
:100C00000748B0F9001029B1012908D1002101805D
:100C100004A002E00121018007A003F0CFBA7047D1
:100C200000000020434C49204543484F2069732071
:100C30004F4646200A0D0000434C49204543484F8B
:100C4000206973204F4E200A0D00000010B5084C9B
:100C5000207800280AD007A003F0B0FA0020207006
:100C600000F00AF8BDE8104002F04CBD10BD0000D5
:100C7000020000200A0D000010B514210C48FFF7F7
:100C800068FA0B4814211430FFF763FA084814215E
:100C90002830FFF75EFA064814213C30FFF759FA76
:100CA00003481421BDE810405030FFF752BA00004D
:100CB0009204002010B500F025FA0748016807A04B
:100CC00003F07CFA0E4801680EA003F077FABDE845
:100CD000104010A003F072BAD00000204375727269
:100CE000656E74204C454427732074656D70657281
:100CF00061747572653A2025642043200900000064
:100D0000CC00002020204C6173743A2025692043D8
:100D100020090000200A0D007047000001A003F028
:100D20004DBA0000756172745F616C742000000040
:100D300010B54FF400442146054800F0EFFD0028AF
:100D400004D12046BDE8104000F0FEBC10BD0000FC
:100D5000000C014010B54FF480742146054800F0A6
:100D6000DDFD002804D12046BDE8104000F0ECBCB9
:100D700010BD000000080140F8B50D4607460222EC
:100D800020A1FFF704FA204E204C48B901206081D1
:100D900002460146304600F0C6FD1DA003F00EFAE3
:100DA000032221A13846FFF7F2F948B900206081FB
:100DB00002460121304600F0B6FD1CA003F0FEF90A
:100DC000032219A13846FFF7E2F940B102220DA132
:100DD0003846FFF7DCF910B11AA003F0EFF91DB1A6
:100DE0006946284603F067FE0098411EFE2903D895
:100DF000A06118A003F0E2F94FF08041A0694863B8
:100E0000F8BD00004F4E0000000C01406C000020B7
:100E100046414E20686173207475726E6564204F80
:100E20004E200A0D000000004F46460046414E206D
:100E3000686173207475726E6564204F4646200A9F
:100E40000D00000053796E746178206572726F72C4
:100E5000200A0D004F4B200A0D0000002DE9F04143
:100E6000394C07460222208D618A401AA08237A1A0
:100E70003846FFF78CF9012638B937B1A68134A07E
:100E800003F09CF93BA003F099F903223BA13846FB
:100E9000FFF77DF9002538B937B1A58138A003F0F7
:100EA0008DF934A003F08AF902223FA13846FFF7FA
:100EB0006EF9B4F90C00002815D0012813D13B4875
:100EC000616A0068884202DB668196200AE0A16AB6
:100ED00088420ADC6921A161B4F91410884202DC5D
:100EE0006581CD20A061BDE8F08131490968884263
:100EF00013D0401A2063012806DBA169012903DD14
:100F0000A1F10101A16106E0401C04D1A069FF2804
:100F100001DC401CA0612563E5E7E16A8842E2DB71
:100F2000244805602448056024480560244805607D
:100F3000244805602448056024480560244805606D
:100F4000A6616681CFE700006C0000206F6E000094
:100F50004175746F6D617469632046414E20636F03
:100F60006E74726F6C207475726E6564204F4E20C3
:100F70000A0D00004F4B200A0D0000006F6666004E
:100F80004175746F6D617469632046414E20636FD3
:100F90006E74726F6C207475726E6564204F464675
:100FA000212121200A0D00006E630000D0000020E6
:100FB000CC00002028000020240000202000002079
:100FC0001C00002018000020140000201000002049
:100FD0000C00002010B5032233A13448FFF7D7F8E6
:100FE00038B9324A3C32A2F11401A1F1140001F0E7
:100FF0001FFE03222EA12D48FFF7C9F828B92B495F
:101000002831A1F11400FFF7B7FE032229A12748D8
:10101000FFF7BDF818B92548143002F013FB06227B
:1010200025A12248FFF7B3F808B902F059FC0822BD
:1010300023A11E48FFF7ABF808B9FFF76FFE0A229D
:1010400022A11A48FFF7A3F808B9FFF7D9FD072234
:1010500021A11648FFF79BF808B9FFF72BFE0822DD
:101060001FA11248FFF793F818B910481430FFF782
:10107000F5FE08221DA10D48FFF789F818B90B48A5
:101080001430FFF7A1FC08221BA10848FFF77FF8E6
:10109000002807D10549BDE810402831A1F114000E
:1010A00002F0CEBB10BD00004C454400920400206D
:1010B00046414E005053550053544154555300007F
:1010C000756172745F616C7400000000746F6F670B
:1010D0006C654563686F000067657474656D7000CA
:1010E00066616E6C6F67696300000000676574611C
:1010F0006463646174610000737461746C6564732B
:101100000000000010B5144CB4F9020098B1012899
:1011100019D100F00FFCA0606168401AE060BB28A4
:1011200011D360692061207803F040FD6061B0F563
:10113000A06F09D00AE0207803F08EFD00F0FAFBE2
:1011400060600120608010BD2069606100206080C7
:101150006060A060E06010BDBC000020F8B5002316
:10116000009390F8244082689E46012C2CD00124E4
:1011700080F824404FF4787442B34D680A691F2602
:1011800095423BD8551B94FAA4F7C5F10305B7FA6D
:1011900087F76F43BE4046F4401C0668B76B94FA6D
:1011A000A4F4B4FA84F465430C6827EA0C07AC4055
:1011B0004FF4401595FAA5F5B5FA85F5521EAA40EB
:1011C00014432743B76328E00220F8BD4A68012A88
:1011D00005D0826A42F02002826201231DE094FA67
:1011E000A4F4B4FA84F40A6804EB4404A24004684A
:1011F000A56B6FF315052A43A2630EE0521B94FA08
:10120000A4F4C2F10302B4FA84F462439640026883
:1012100046F44015946BAC43946302689468E443CD
:10122000E40706D0946847F20105AC43CD692C432E
:1012300094608A69012A08D1CA69B2F5E04F08D0E2
:10124000826A42F02002826201234A69012A06D0A2
:101250000CE00268546844F480645460F5E78A69DD
:10126000FAB1826A42F02002826201230A683824BD
:10127000072506680A2A1AD3F76894FAA4FCBCFA70
:101280008CFC0A3A02FB0CFC05FA0CF5AF4394FA0D
:10129000A4F4B4FA84F48D68624395402F43F76058
:1012A00018E00268546844F480545460DEE73769FB
:1012B00094FAA4FCBCFA8CFC02FB0CFC05FA0CF5BD
:1012C000AF4394FAA4F4B4FA84F48D686243954071
:1012D0002F4337610A68102A01D0112A04D102680D
:1012E000946844F4000494604A68012A10D0022AE9
:1012F00016D0032A02681BD0146ACD686FF30B0462
:101300002C4314620A68102A19D0112A17D037E02A
:1013100002685469CD686FF30B042C435461F1E704
:1013200002689469CD686FF30B042C439461E9E77C
:10133000D469CD686FF30B042C43D461E2E7124CFF
:101340000268A24217D19468240219D4946844F424
:10135000000494600968102912D10C490C4A0968EC
:10136000B1FBF2F101EB8101490000E0491E00915F
:101370000029FBD104E0816A41F020018162012350
:1013800080F824E01846F8BD00240140D400002075
:1013900040420F0010B50121074800F013F807493B
:1013A00008600221044800F00DF805490860BDE816
:1013B0001040014800F016B8E4000020A000002012
:1013C000A40000200068022909D0032905D00429BF
:1013D00001D0C06B7047806C7047406C7047006CE8
:1013E0007047000070B5044690F8240001280DD025
:1013F000012084F824002046FFF7AEFA01004FF0E8
:10140000000005D084F82400084670BD022070BD9D
:10141000A26A42F201039A4342F48052A2621C4A39
:1014200025681C4B95421FD11E6816F4702F1BD0E7
:10143000A66A46F48016A662A66AF60500D4E062A3
:1014400084F824006FF0040028602068456845F0A7
:1014500080054560206844686405D5D48468C4F379
:101460000234072C04D009E0A66A26F48016E2E7CD
:10147000904208D11A6812F4702F04D0826842F4A6
:1014800000428260C0E7826842F40212F9E700007D
:101490000028014004240140704710B5044600684C
:1014A0004168890626D50168890723D5A16AC9063E
:1014B00003D4A16A41F40071A1628168C1F3424181
:1014C000072910D1E16871B9416821F0200141601C
:1014D000A06A20F48070A062A06AC00403D4A06A4D
:1014E00040F00100A0622046FFF7D6FF21686FF0B0
:1014F000120008602068416809062ED50168490776
:101500002BD5A16AC90603D4A16A41F40051A16296
:101510008168C1F30231072909D04168490515D412
:101520008168C1F34241072910D1E16871B941686E
:1015300021F080014160A06A20F48050A062A06A7E
:10154000C00503D4A06A40F00100A0622046FFF766
:1015500021FF21686FF00C0008602068416849068F
:101560000DD50068C0070AD0A06A40F48030A062A0
:10157000204600F09FF821686FF00100086010BD60
:101580002DE9F04104004FF0000513D0A06A0026B9
:1015900028B9E66284F82460204600F08DF82046E1
:1015A000FFF7B4F9A16AC90600D420B1A06A40F0DF
:1015B0001000A06278E0A16A21F4885141F0020194
:1015C000A1626268E16902270A43E16897FAA7F716
:1015D0000B46B7FA87F7B9400A43A1684FF4807702
:1015E000B94209D0012907D05FF00001D4F814C036
:1015F000BCF1010F02D00AE03946F7E7F3B1A36A64
:1016000043F02003A362E36A43F00103E36223682B
:10161000D3F804C02CF4694C4CEA010CC3F804C0A4
:1016200021688B68DFF884C003EA0C0313438B60E6
:10163000A168B94210D001290ED016E04FF4604CD9
:10164000A3699CFAACFCBCFA8CFC5B1E03FA0CF39D
:101650000B4343F40061DAE74FF47001256991FA16
:10166000A1F1B1FA81F16D1E8D402168CB6A23F49E
:1016700070032B43CB62216889680D4B194091425E
:1016800008D1E662A16A21F0020141F00101A162E4
:10169000BDE8F081A06A20F0020040F01000A062D6
:1016A000E06A40F00100E0620120F1E7FDF7E1FFB0
:1016B000FE0E1FFF7047000000B500680F4985B09F
:1016C000884218D10E48816941F4007181618069B6
:1016D000694600F4007004903020009003200190CF
:1016E000084800F03DF800221146122000F0A0F951
:1016F000122000F091F905B000BD00000024014067
:10170000001002400008014031B500F013F9044612
:1017100000F010F90099001B8842F9D338BD000091
:101720000121084AB0F5004F06D0B0F5807F07D1FF
:1017300051800220FFF714BA118001210846F9E711
:10174000704700006C000020044910B50A6802428E
:1017500002D00860FFF7E4FF10BD00001404014050
:101760002DE9F84FDFF890A100220AF1040B14468E
:1017700001274FF00F090BF1040E00BF0B6807FAA9
:1017800004F52B40AB4274D1DFF870C14E68A6EB74
:101790000C0866452BD00DDC032E34D005DC36B3A7
:1017A000012E19D0022E2FD11BE0112E16D0122E91
:1017B0002AD119E0B8F5881F19D006DCB8F5803FAA
:1017C00015D0B8F5801F1FD111E0B8F5001F0ED05D
:1017D000B8F5041F18D10AE0CA6815E0CA68121DDE
:1017E00012E0CA6808320FE0CA680C320CE08A685E
:1017F0002AB1012A4FF0080203D0456104E0042217
:1018000002E0056100E00022FF2B01D8064601E05E
:1018100000F104064FEA840501D9A5F12005D6F8A8
:1018200000C009FA05F82CEA080C02FA05F54CEAA2
:10183000050CC6F800C04D68ED0057D5304DAE69B7
:1018400046F00106AE61AD6924F0030605F001051E
:1018500000952C4D06EB050CDCF80850A6074FEA66
:10186000167809FA08F6B543274EB04202D1002691
:1018700010E03BE0254EB04201D101260AE0244EA3
:10188000B04201D1022605E0224EB04201D103262A
:1018900000E0042606FA08F62E43CCF808604D68EE
:1018A000DAF80060ED03554601D51E4300E09E4383
:1018B0002E604D68DBF80060AD035D4601D51E4328
:1018C00000E09E432E604D68DEF80060ED02754634
:1018D00001D51E4300E09E432E604D68AD020E4DC3
:1018E0002E6801D51E4300E09E432E60641C102C20
:1018F000FFF444AFBDE8F88F000401400000111070
:10190000001002400000014000080140000C0140AE
:1019100000100140001401400C04014080680840A0
:1019200000D0012070471AB1012A00D1016170472F
:101930000904FBE70148006870470000D800002058
:1019400002480168491C016070470000D80000206F
:10195000074810B5016841F010010160032000F054
:1019600087F8002000F006F800F016F8002010BDFF
:101970000020024010B5044600F06AFA4FF47A7174
:10198000B0FBF1F000F03AFE00222146501E00F0BC
:101990004FF8002010BD00001D4808B5816941F0D6
:1019A00001018161806900F001000090032000F0D6
:1019B0005FF8002211466FF00B0000F039F80022AA
:1019C00011466FF00A0000F033F8002211466FF064
:1019D000090000F02DF800221146501F00F028F8F1
:1019E00000221146101F00F023F800221146901E1D
:1019F00000F01EF800221146501E00F019F80548AC
:101A0000416821F0E06141F00071416008BD0000D3
:101A1000001002400000014000F01F02012191402F
:101A20004009800000F1E020C0F80011704700007C
:101A3000F0B40E4B1B680C46C3F30223C3F1070539
:101A4000042D00D90425191D072901D2002300E027
:101A5000DB1E012606FA05F1491E214099409E40F1
:101A6000761E16403143F0BC01F0DCBD0CED00E009
:101A7000064900F0070208684FF6FF03184040EAE5
:101A80000220034A10430860704700000CED00E09C
:101A90000000FA050120010291FAA1F1024AB1FA0F
:101AA00081F142F82100704700000E4210B533A4C6
:101AB00001461DCC86B08DE81D0034A0344C006872
:101AC00004900020012931D0022948D010292BD1BF
:101AD00061682268D20127D54FF4701292FAA2F2FF
:101AE00001F47010B2FA82F2D040C9031DF8000070
:101AF00010D561684FF4003292FAA2F201F400317D
:101B0000B2FA82F2D14004AA515C224AB2FBF1F14E
:101B1000484301E0204948436168490204D4400039
:101B20005FF00301B0FBF1F006B010BD226AC2F312
:101B30000121012903D1920701D5C803F4E7022945
:101B400005D1626A920702D549F64040ECE70329C5
:101B5000EAD121688903E7D54FF22440E4E700F099
:101B600095F961684FF4804292FAA2F201F4404183
:101B7000B2FA82F2D140491C4900D3E702030405BE
:101B8000060708090A0B0C0D0E0F101001020000C9
:101B90000010024000127A0000093D002DE9F843D0
:101BA00005460078454CC00774D0E06940F080508D
:101BB000E061E069424E00F080500090306840F4EF
:101BC00080703060FFF7B6FE074604E0FFF7B2FE14
:101BD000C01B642833D83068C005F7D5206A10F4DC
:101BE000407051D0A98801F4407181424CD0206AE4
:101BF0000126310491FAA1F2B2FA82F29300314A3D
:101C000020F440701344C3F8006491FAA1F1B1FAD2
:101C100081F102EB81010023C1F800342062C0078A
:101C200032D0FFF787FE074641F288394FF00208AD
:101C300008E000BFFFF77EFEC11B494502D9032023
:101C4000BDE8F88398FAA8F1B1FA81F141F04001BA
:101C50004046B6EB511F01D121680BE090FAA0F18C
:101C6000B1FA81F141F04001B0EB511F01D1216A7D
:101C700000E0616A98FAA8F0B0FA80F000F01F0264
:101C800006FA02F00142D5D0206A696820F440705B
:101C9000084320622878800705D56068A96820F489
:101CA0004040084360602878C00605D56068E96850
:101CB00020F48000084360600020C1E7001002406B
:101CC00000700040000042422DE9F047DFF87081CB
:101CD00005460E46D8F8000000F00700B0420CD2CE
:101CE000D8F8001021F007013143C8F80010D8F8E7
:101CF000000000F00700B04277D12878514C8007EF
:101D000005D56068A96820F0F00008436060287875
:101D1000C00759D06968012001290DD0022929D0B6
:101D20005FF0020393FAA3F2B2FA82F242F02002C9
:101D3000520904D0226803E04FF40033F2E7626AEC
:101D400093FAA3F3B3FA83F303F01F03984002421C
:101D50004BD0606820F0030008436060FFF7EAFDA5
:101D60006968074641F2883001290DD00229814671
:101D700017D025E04FF00073D4E700BFFFF7DAFD7E
:101D8000C11B494501D918E081466068C0F3810054
:101D90000128F3D118E000BFFFF7CCFDC11B494576
:101DA0000BD86068C0F381000228F5D10CE000BFB9
:101DB000FFF7C0FDC11B494502D90320BDE8F087EC
:101DC000606810F00C0FF3D1D8F80010404601F015
:101DD0000701B1420BD9016821F0070131430160CD
:101DE000006800F00700B04201D00120E6E7287843
:101DF000400705D56068E96820F4E060084360604A
:101E00002878000706D56068296920F4605040EA08
:101E1000C100606000F052F86168F02292FAA2F20C
:101E200001F0F001B2FA82F2D140074A515CC84099
:101E3000064908600020FFF79DFD0020BEE7000076
:101E40000020024000100240614E0008D400002033
:101E50000148006870470000D40000200848094984
:101E6000006849684FF4E06292FAA2F201F4E0617E
:101E7000B2FA82F2D140044A515CC8407047000077
:101E8000D400002000100240714E000808480949A3
:101E9000006849684FF4605292FAA2F201F460516E
:101EA000B2FA82F2D140044A515CC8407047000047
:101EB000D400002000100240714E000810B519A394
:101EC00085B00FCB8DE80F001AA01B4B0068049063
:101ED0005A681A4802F00C0104291DD008291BD1A8
:101EE0004FF4701494FAA4F402F47011B4FA84F468
:101EF000E140D2031DF8011010D55A684FF40033A9
:101F000093FAA3F302F40032B3FA83F3DA4004AB9A
:101F10009A5CB0FBF2F0484305B010BD0848484356
:101F2000FAE7000002030405060708090A0B0C0D76
:101F30000E0F1010010200000010024000127A0083
:101F400000093D002DE9F84F04460078F74DC00721
:101F50004FF0010625D068687704C0F3810001289E
:101F600007D06868C0F3810002281BD16868C003ED
:101F700018D597FAA7F0B0FA80F040F02000400999
:101F800001D0286800E0686A97FAA7F1B1FA81F1F8
:101F900001F01F0106FA01F108425ED060680028D6
:101FA0007CD05AE06068B0F5803F0BD010B1B0F53E
:101FB000A02F11D0286820F480302860286820F4F1
:101FC000802002E0286840F480302860606828B3F0
:101FD000FFF7B0FC80460BE0286840F480202860C2
:101FE000F0E700BFFFF7A6FCA0EB0800642871D85B
:101FF00097FAA7F0B0FA80F040F02000400901D035
:10200000286800E0686A97FAA7F1B1FA81F101F057
:102010001F0106FA01F10842E4D01EE0FFF78AFC36
:10202000804605E0FFF786FCA0EB08006428DED8B8
:1020300097FAA7F0B0FA80F040F02000400901D0F4
:10204000286800E0686A97FAA7F1B1FA81F101F017
:102050001F0106FA01F10842E4D12078DFF8D082AE
:1020600080074FF000094FF002075BD568684FF01A
:10207000F80B10F00C0F07D06868C0F3810002283D
:102080001CD16868C00319D497FAA7F0B0FA80F0A1
:1020900040F02000400902D0286801E08BE0686A27
:1020A00097FAA7F1B1FA81F101F01F0106FA01F1E7
:1020B00008422CD0206901287DD128E0206990B306
:1020C00096FAA6F0B0FA80F048F82060FFF732FCEC
:1020D000824607E011E100BFFFF72CFCA0EB0A00ED
:1020E000022884D897FAA7F0B0FA80F040F02000D8
:1020F000400901D0286800E0686A97FAA7F1B1FAB0
:1021000081F101F01F0106FA01F10842E4D02868CC
:102110009BFAABF26169B2FA82F220F0F8009140CA
:102120000843286025E0FFE796FAA6F1B1FA81F1AD
:1021300048F82190FFF7FEFB824605E0FFF7FAFB27
:10214000A0EB0A000228CCD897FAA7F0B0FA80F0EA
:1021500040F02000400901D0286800E0686A97FA42
:10216000A7F1B1FA81F101F01F0106FA01F108426D
:10217000E4D1207800076ED5A069B8B396FAA6F02E
:10218000B0FA80F008EB8000C0F88064FFF7D2FB63
:10219000824605E0FFF7CEFBA0EB0A000228A0D89C
:1021A00097FAA7F0B0FA80F040F06000B6EB501F4D
:1021B00002D128680CE062E197FAA7F0B0FA80F04B
:1021C00040F06000B7EB501F01D1286A00E0686A58
:1021D00097FAA7F1B1FA81F101F01F0106FA01F2B5
:1021E0001042D7D00120FFF78FFA34E0FFE796FACC
:1021F000A6F1B1FA81F108EB8101C1F88094FFF7F3
:1022000099FB824606E000BFFFF794FBA0EB0A00B3
:10221000022872D897FAA7F0B0FA80F040F0600078
:10222000B6EB501F01D128680BE097FAA7F0B0FA7F
:1022300080F040F06000B7EB501F01D1286A00E049
:10224000686A97FAA7F1B1FA81F101F01F0106FA65
:1022500001F21042D8D12078400765D5E86940F0F6
:102260008050E861E869DFF8CCB000F08050009061
:10227000DBF8001041F48071CBF80010FFF75AFB37
:10228000824605E0FFF756FBA0EB0A00642834D82D
:10229000DBF80000C005F5D5E06801280AD008B1D8
:1022A000052813D0286A20F001002862286A20F04F
:1022B000040002E0286A40F001002862E06841F270
:1022C000883B90B3FFF736FB82460BE0286A40F06C
:1022D00004002862EEE700BFFFF72CFBA0EB0A0129
:1022E00059450AD897FAA7F0B0FA80F040F04000BC
:1022F000B6EB501F02D128680CE0A3E097FAA7F0D4
:10230000B0FA80F040F04000B7EB501F01D1286ACE
:1023100000E0686A97FAA7F1B1FA81F101F01F02B3
:1023200006FA02F10842D7D031E005E00010024081
:102330000000424200700040FFF7FCFA824605E0D0
:10234000FFF7F8FAA0EB0A0159457BD897FAA7F0F6
:10235000B0FA80F040F04000B6EB501F01D1286881
:102360000BE097FAA7F0B0FA80F040F04000B7EB2E
:10237000501F01D1286A00E0686A97FAA7F1B1FA04
:1023800081F101F01F0206FA02F10842D8D1E0699A
:1023900080B36968C1F38101022970D04FF0807168
:1023A0004F000228484609D091FAA1F1B1FA81F113
:1023B00048F82100FFF7BEFA044669E08A4691FA20
:1023C000A1F1B1FA81F1C14648F82100FFF7B2FA54
:1023D000804605E0FFF7AEFAA0EB0800022854D8CB
:1023E00097FAA7F0B0FA80F040F02000400902D040
:1023F000286801E061E0686A97FAA7F1B1FA81F113
:1024000001F01F0106FA01F10842E3D1206AB0F59C
:10241000803F05D16868A16820F4003008436860F7
:10242000D4E908010843696821F47411084368601D
:102430009AFAAAF0B0FA80F049F82060FFF77AFA29
:10244000044606E021E000BFFFF774FA001B0228F3
:102450001BD897FAA7F0B0FA80F040F020004009AE
:1024600001D0286800E0686A97FAA7F1B1FA81F113
:1024700001F01F0106FA01F10842E5D01DE01EE05F
:10248000FFF758FA001B022802D90320BDE8F88F95
:1024900097FAA7F0B0FA80F040F02000400901D090
:1024A000286800E0686A97FAA7F1B1FA81F101F0B3
:1024B0001F0106FA01F10842E2D10020E6E70120FF
:1024C000E4E7000070B5040003D0607C002610B182
:1024D00005E0012070BD2674204600F043F802207C
:1024E0006074204600F060F8042578BB204601F0B7
:1024F0002AF958BB2068416821F007014160A068B3
:1025000020B11748016821F0010101601448001F43
:102510000168A26821F46071114301606068411C88
:1025200004D10120FFF7C2FA80B1401E21688A68F9
:1025300022F00F0242EA10428A602168CA6860F302
:102540000F02CA60204601F019F908B16574C0E7AE
:10255000E67301206073A0736074002070BD0000FA
:10256000306C004008B500680C49884215D1FFF76F
:1025700091FA0B48C16941F00061C161C069094A23
:1025800000F0006000900120C10391FAA1F1B1FABE
:1025900081F102EB8101C1F8000408BD0028004070
:1025A000001002400000424270B504000AD02068CA
:1025B000416821F008014160FFF7BCF905464FF47E
:1025C0007A7608E0012070BDFFF7B4F9401BB042F5
:1025D00001D9032070BD206840680007F4D50020B1
:1025E00070BD4FF0E0210428086903D020F00400FA
:1025F0000861704740F00400FAE7704710B5401ECC
:10260000B0F1807F01D3012010BD4FF0E024606164
:102610000F21601701F006F80020A061072020615B
:10262000002010BD10B5FFF7E8FF10BD30B590F8E1
:102630003820012A20D0012280F83820022380F897
:10264000393003685C6824F070045C6003685C687F
:102650000D682C435C6003689C6824F080049C60D7
:1026600003689C6849680C439C6080F8392000210D
:1026700080F83810084630BD022030BD10B5040087
:1026800003D094F8390010B107E0012010BD0020FC
:1026900084F83800204600F00DF8022084F8390054
:1026A000211D206801F0A2FA012084F839000020E1
:1026B00010BD000008B500680649884208D10648E8
:1026C000C16941F00201C161C06900F002000090DF
:1026D00008BD00000004004000100240022180F804
:1026E000391001680A6842F001020A60012180F88D
:1026F00039100020704770B5044690F83800012862
:1027000017D0012584F83850022084F83900206859
:10271000826822F0770222F47F42826008685028A3
:1027200037D00DDC202859D005DC88B3102841D1E2
:1027300051E0022070BD302853D040283AD13FE00C
:1027400060282ED070280BD0B0F5805F03D0B0F594
:10275000005F2FD110E02068816821F0070115E0AB
:10276000CB68D1E90121206801F07DFA21688868F1
:1027700040F0770088601DE0CB68D1E90121206836
:1027800001F071FA2068816841F48041816011E0B4
:102790001EE0CA684968206801F01AFB50212068D1
:1027A00006E0CA684968206801F023FB60212068C0
:1027B00001F063FA84F83950002084F8380070BDC5
:1027C000CA684968206801F003FB40212068EFE7F0
:1027D00000212068ECE710212068E9E7202120682B
:1027E000E6E730212068E3E71FB501680220B1F178
:1027F000804F0DD00F4A914209D14FF47071CDE94D
:1028000000100320039069460B48FEF7A9FF1FBD87
:102810004FF40041CDE90010039069460748FEF7E8
:102820009FFF0748416821F4407141F48071416085
:102830001FBD000000080040000C014000080140DE
:102840000000014070B5044690F838000D4601289C
:102850000DD0012684F83860022084F8390042B196
:10286000042A18D0082A2AD00C2A4DD139E0022097
:1028700070BD206801F00AFA2068816941F0080102
:1028800081612068816921F004018161206881698A
:102890002A69114311E0206801F020FA206881695B
:1028A00041F4006181612068816921F48061816166
:1028B000206881692A6941EA0221816124E0206857
:1028C00001F038FA2068C16941F00801C16120684F
:1028D000C16921F00401C1612068C1692A691143FD
:1028E00011E0206801F052FA2068C16941F40061EA
:1028F000C1612068C16921F48061C1612068C1693A
:102900002A6941EA0221C16184F83960002084F813
:10291000380070BD10B5040003D094F8390010B130
:1029200007E0012010BD002084F83800204600F0A8
:102930000DF8022084F83900211D206801F056F9B5
:10294000012084F83900002010BD000008B501689E
:102950000B48B1F1804F0BD00A4A914207D1C169AF
:1029600041F00401C161C06900F00400009008BD9D
:10297000C16941F00101C161C06900F00100F5E7E2
:10298000001002400008004010B504460068012213
:1029900001F05EF907492068884203D1416C41F497
:1029A000004141642068016841F00101016000209C
:1029B00010BD0000002C01407047000038B50446EF
:1029C00000680168C26811F0010F02F4807204D03F
:1029D0001AB1E16B41F00101E1630168C1F340020A
:1029E000416901F0010122B119B1E26B42F0040228
:1029F000E2630268C2F3800222B119B1E26B42F0D5
:102A00000202E2630268C2F3C00222B119B1E16BB3
:102A100041F00801E1630168C068C1F3401100F0B2
:102A2000200019B110B1204601F0F6F920680168C4
:102A3000C068C1F3C01100F0800019B110B1204688
:102A400001F0F6FA21680868CA68C0F3801002F045
:102A50004002012570B16AB1CA68204622F04002E6
:102A6000CA6094F83910322911D080F8395000BF6B
:102A700000F0DCF8E06B002808D0206801684068AE
:102A8000009084F839502046FFF796FF38BD222188
:102A900080F83910ECE770B5040004D094F83900E0
:102AA000002510B106E0012070BD84F838502046A2
:102AB00000F020F8022084F839002068C16821F471
:102AC0000051C160204601F0FBF92068016921F442
:102AD000904101612068416921F02A01416120682B
:102AE000C16841F40051C160E563012084F83900F8
:102AF000002070BD10B50068154986B0884225D108
:102B00001448C16941F48021C161C069124C00F4CC
:102B1000802004904FF480600090022001900320F8
:102B2000039069462046FEF71BFE0021E014CDE924
:102B30000001029169462046FEF712FE002211466E
:102B40002720FEF775FF2720FEF766FF06B010BDB1
:102B50000048004000100240000C01407047000097
:102B60002DE9F047044690F8390099460D460128B2
:102B700001D0222858D12DB322B394F8380001286F
:102B800052D0012684F838600027E76394F83900B2
:102B900022281AD05FF0120084F83900A284E2845F
:102BA0004FF48058E08C4B46401EE084A0684FF004
:102BB000000240454FF08001204613D101F06BFA2E
:102BC00008BB04E00120BDE8F0873220E4E7288854
:102BD0002168C0F308004860206908B16D1C08E056
:102BE000AD1C06E001F057FA68B9216815F8010B31
:102BF0004860E08C0028D5D14B4600224021204679
:102C000001F049FA08B10320DDE794F839003228D1
:102C100006D084F8396000BF84F838700020D2E70D
:102C2000222084F83900F7E70220CCE77047FEE75E
:102C30002DE9F74F4FF0000984B08B46CDF8049092
:102C4000CDF808904F464E46C8464D460322FEA199
:102C5000CDF800900498FDF79AFA18B9E4204FF0E7
:102C6000010801900222F9A15846FDF790FA4FF0B1
:102C7000010A10B90126CDF808A00322F4A1584694
:102C8000FDF785FA10B90126CDF808900222F1A1CE
:102C90005846FDF77CFA10B90226CDF808900322B9
:102CA000EDA10698FDF773FAEC4C60B90322E6A19A
:102CB0000498FDF76CFA30B9606C2064E063A0639F
:102CC0006063012500900322E3A10698FDF75FFAF7
:102CD00010B9606C012500900322E1A10698FDF770
:102CE00056FA60B90322D8A10498FDF750FA30B91A
:102CF000A06C2064E063A063606301250090032260
:102D0000D7A10698FDF743FA10B9A06C01250090F1
:102D10000222CEA15846FDF73AFA70B90322CAA1A1
:102D20000498FDF734FA40B9C4F820A0C4F81CA0F8
:102D3000C4F818A00126C4F814A00322C4A1584660
:102D4000FDF725FA70B90322BFA10498FDF71FFA19
:102D500040B9C4F82090C4F81C90C4F8189001261B
:102D6000C4F81490B8F1000F0CD101A9049801F037
:102D7000A2FE0198002801DD042803DD0127B9A087
:102D800001F01CFA7EB90298206502A9584601F0AC
:102D900092FE029838B1012805D0206D02900127DB
:102DA000B7A001F00BFA0222BAA10698FDF7EFF9DD
:102DB00058B90322A4A10498FDF7E9F928B10198B4
:102DC00000F0CCFA0A30022500900222B2A1069847
:102DD000FDF7DDF958B903229BA10498FDF7D7F957
:102DE00028B1019800F0BAFA64300225009002225E
:102DF000AAA10698FDF7CBF960B9032292A1049825
:102E0000FDF7C5F930B1019800F0A8FA00F57A7025
:102E1000022500900222A2A10698FDF7B8F942F21D
:102E2000107858B9032288A10498FDF7B0F928B1A9
:102E3000019800F093FA404402250090022299A1E3
:102E40000698FDF7A4F958B903227FA10498FDF76D
:102E50009EF928B1019800F081FA0A380225009005
:102E6000022291A10698FDF792F958B9032276A1A2
:102E70000498FDF78CF928B1019800F06FFA6438D6
:102E800002250090022289A10698FDF780F960B919
:102E900003226DA10498FDF77AF930B1019800F092
:102EA0005DFAA0F57A7002250090022280A10698B2
:102EB000FDF76DF970B9032263A10498FDF767F976
:102EC00040B1019800F04AFAA0F51C5010380225D4
:102ED000009011E085B90098E0646946069801F019
:102EE000EAFD00984FF6FF71884205DBE06C009028
:102EF000012770A001F062F90198032825D004DCB5
:102F000001280ED0022804D115E0042827D0E42897
:102F10002ED06DA001F052F900F0ACF907B0BDE879
:102F2000F08F012D02D0009800B16063002E01D116
:102F3000029860616CE1012D02D0009800B1A0639D
:102F4000002EF7D10298A06162E1012D02D0009815
:102F500000B1E063002EEDD10298E06158E1012D4F
:102F600002D0009800B12064002EE3D102984EE117
:102F7000022248A10698FDF70AF9A0B9012000F045
:102F8000EDF90A306063022000F0E8F90A30A0632E
:102F9000032000F0E3F90A30E063042000F0DEF9DA
:102FA0000A300225206402223BA10698FDF7EFF8C3
:102FB000A0B9012000F0D2F964306063022000F073
:102FC000CDF96430A063032000F0C8F96430E063F9
:102FD000042000F0C3F964300225206402222FA1EE
:102FE0000698FDF7D4F8C0B9012000F0B7F900F554
:102FF0007A706063022000F0B1F900F57A70A06386
:10300000032000F0ABF900F57A70E063042000F0D3
:10301000A5F900F57A7002252064022220A1069805
:10302000FDF7B5F870B9012000F098F9434618444F
:103030006063022000F092F91844A063032000F0BE
:103040008DF94FE056E00000414C4C004F4E00001F
:103050004F4646004E4300004D41580008000020F6
:103060004D494E0057726F6E67204C4544206E7577
:103070006D6265722076616C7565200A0D00000036
:1030800057726F6E6720454E2076616C7565200A19
:103090000D0000002B3100002B3200002B3300000C
:1030A0002B3400002D3100002D3200002D330000A4
:1030B0002D34000057726F6E672050574D20766197
:1030C0006C7565200A0D000053796E746178206577
:1030D00072726F72206E656172204C4544200A0D39
:1030E000000000001844E063042000F037F91844A1
:1030F000022520640222AFF254010698FDF747F83A
:10310000A0B9012000F02AF90A386063022000F01B
:1031100025F90A38A063032000F020F90A38E0639B
:10312000042000F01BF90A38022520640222AFF2C5
:1031300088010698FDF72BF8A0B9012000F00EF9E0
:1031400064386063022000F009F96438A06303204A
:1031500000F004F96438E063042000F0FFF86438FC
:10316000022520640222AFF2BC010698FDF70FF899
:10317000C0B9012000F0F2F8A0F57A706063022077
:1031800000F0ECF8A0F57A70A063032000F0E6F8F8
:10319000A0F57A70E063042000F0E0F8A0F57A7002
:1031A000022520640222AFF2F8010698FCF7EFFF37
:1031B000E0B9012000F0D2F8A0F51C50103860638F
:1031C000022000F0CBF8A0F51C501038A0630320BB
:1031D00000F0C4F8A0F51C501038E063042000F0A3
:1031E000BDF8A0F51C50103802252064009828B1C5
:1031F000022D03D06063A063E0632064029838B1BD
:10320000022805D0012803D16061A061E06120623D
:1032100000F030F8002F7FF481AE02A000F0CEFF66
:103220007CE600004F4B200A0D0000002D2A02D042
:103230002B2A02D002E0401A00E00844B0F5803F9B
:1032400001DB4FF6FF707047020009D00849012AE0
:1032500007D0022A07D0032A07D0042800D1086922
:1032600070474868704788687047C86870470000B2
:103270000800002070B52B4C2278616A606BFFF764
:10328000D5FF60606278A16AA06BFFF7CFFFA060F6
:10329000A278E16AE06BFFF7C9FFE060E278216B9A
:1032A000206CFFF7C3FF204A206161681160121D86
:1032B000A1681160121DE1681160111D08601B4DAD
:1032C0006069491518B1012805D1012200E00022EA
:1032D0002846FEF728FBA0694FF4806118B1012849
:1032E00005D1012200E000222846FEF71CFBE06920
:1032F0004FF4006118B1012805D1012200E000223D
:103300002846FEF710FB206A4FF4805118B10128BF
:1033100007D1012200E000222846BDE87040FEF7F8
:1033200002BB70BD080000203408004000080140C6
:10333000020009D00849012A07D0022A07D0032A2F
:1033400007D0042800D1086A704748697047886927
:103350007047C8697047000008000020020009D0CB
:103360000849012A07D0022A07D0032A07D00428D7
:1033700000D1086C7047486B7047886B7047C86B0A
:10338000704700000800002030B5194889B017497F
:10339000016089150024C0E9021444610225056119
:1033A0004FF460214460C161FEF7EAF800B1FEE726
:1033B000042000900120CDE901044FF4E040CDE964
:1033C0000640CDE90454694609480394FDF7C6FE5A
:1033D00000B1FEE70520CDE9000569460448FDF788
:1033E000BDFE002800D0FEE709B030BD002401403A
:1033F000E40000202DE9F0414D4C86B0A06940F07A
:103400001000A061A06900F010000490A06940F0D5
:103410002000A061A06900F020000490A06940F0A5
:103420000400A061A06900F004000490A06940F0CD
:103430000800A061A0693F4D00F0080004906946B3
:103440002846FEF78DF9A06940F00400A0612868C5
:1034500020F030002860286820F0C000286028682C
:1034600040F020002860286840F040002860314883
:103470000C30016841F0020101602F4F8015CDE949
:1034800000070124694602942846FEF769F90420E2
:103490000026CDE90006694602942846FEF760F949
:1034A000E003CDE90007DFF89480694602944046C6
:1034B000FEF756F941F6C860CDE9000402276946D7
:1034C00003972846FEF74CF9009469464046039757
:1034D0000194FEF745F946F22600CDE9000669465B
:1034E00040460296FEF73CF90022C8212846FEF726
:1034F0001AFA00224FF4F0512846FEF714FA01227E
:1035000011464046FEF70FFA002211462820FEF72A
:103510008FFA2820FEF780FA002211461720FEF7C6
:1035200087FA1720FEF778FA06B0BDE8F0810000B0
:10353000001002400008014000002110000C014072
:1035400010B514488AB04FF0804101601249002440
:10355000C0E90114FF21C0E90314FFF7DBF900B152
:10356000FEE7079407A90B480894FFF75FF800B13E
:10357000FEE76020CDE90004029400226946054878
:103580000494FFF75FF900B1FEE70248FFF72CF95A
:103590000AB010BD28010020801A060010B51F488F
:1035A0008AB01D490024C0E900144FF6FF71C0E93C
:1035B00002410461FFF7AEF900B1FEE7079407A9E5
:1035C00016480894FFF732F800B1FEE76020CDE915
:1035D000000402940022694610480494FFF732F96F
:1035E00000B1FEE7042269460C48FFF72BF900B151
:1035F000FEE7082269460948FFF724F900B1FEE713
:103600000C2269460548FFF71DF900B1FEE70348A3
:10361000FFF7EAF80AB010BD00080040A001002042
:10362000FEE770470907090E002806DA00F00F00D0
:1036300000F1E02080F8141D704700F1E02080F8D0
:103640000014704770B5064602221AA1FCF79FFDD0
:10365000194C1A4D48B901202081024608212846FC
:10366000FEF761F916A000F0A9FD03221AA1304669
:10367000FCF78DFD48B9002020810246082128462C
:10368000FEF751F915A000F099FD032212A1304672
:10369000FCF77DFD00280BD0022206A13046FCF786
:1036A00076FD002804D0BDE8704012A000F086BD71
:1036B00070BD00004F4E00006C000020000801406B
:1036C00050535520686173207475726E6564204F85
:1036D0004E200A0D000000004F4646005053552072
:1036E000686173207475726E6564204F4646200AC7
:1036F0000D00000053796E746178206572726F72EC
:10370000200A0D0010B50C48FCF73AFD0B4C608008
:103710000B48FCF735FD20800D210748FCF768FDBC
:10372000A06008B10021017001F07CFBBDE81040F1
:10373000E4210148FCF70DBD1C0200205C000020C4
:10374000CA030020704770B50446FEF7F3F805463B
:103750004FF47A7606E0FEF7EDF8401BB04201D94F
:10376000032070BD206840688006F4D52068416859
:1037700041F010014160002070BD000070B50446AA
:103780000068416821F010014160FEF7D3F805465A
:103790004FF47A7607E000BFFEF7CCF8401BB0424A
:1037A00001D9032070BD206840688006F4D5002050
:1037B00070BD704770B500241E491F481BE0052CE2
:1037C00015D2DFE804F0030B1F272E002846FCF774
:1037D000D7FC024618482946C83006E02846FCF7C0
:1037E000CFFC024614482946DC30FCF7BDFC641CC3
:1037F00024B210490020FCF7D9FC050001D0052CAB
:10380000DDDB70BD2846FCF7BBFC02460A482946B2
:10381000F030EAE72846FCF7B3FC024629460748A1
:10382000E3E72846FCF7ACFC02460448294614307E
:10383000DBE70000604E0008CA030020CE04002031
:103840001CB50C4610B101A901F03DF91CB1694647
:10385000204601F038F9BDF904406CB10022012383
:1038600013491448012C09D0022C0FD1BDF9004096
:10387000BCB1012C07D117E00FA005E0BDF9004055
:103880002CB1012C06D011A000F098FC1CBD8A8040
:10389000002201E08B8001225FF04001FEF743F837
:1038A0001CBDCA80002201E0CB8001228021F5E707
:1038B0006C0000200008014057726F6E67206C6535
:1038C000646E756D202F722F6E00000057726F6E40
:1038D00067206C65647374617465202F722F6E00AD
:1038E00010B54FA000F06AFC0120FFF737FD01463C
:1038F0004CA000F063FC0120FFF7A6FC01464CA0A1
:1039000000F05CFC0120FFF713FD01464BA000F026
:1039100055FC43A000F052FC0220FFF71FFD0146BA
:1039200049A000F04BFC0220FFF78EFC014640A0AE
:1039300000F044FC0220FFF7FBFC01463FA000F032
:103940003DFC37A000F03AFC0320FFF707FD0146DD
:1039500040A000F033FC0320FFF776FC014634A0C2
:1039600000F02CFC0320FFF7E3FC014633A000F03D
:1039700025FC2BA000F022FC0420FFF7EFFC014601
:1039800037A000F01BFC0420FFF75EFC014628A0D6
:1039900000F014FC0420FFF7CBFC014627A000F048
:1039A0000DFC1FA000F00AFC3048B0F9001030A058
:1039B00000F004FC1AA000F001FC3048B0F900103F
:1039C0002FA000F0FBFB3148016831A000F0F6FBAE
:1039D00013A000F0F3FB3148016831A000F0EEFBCA
:1039E0003848016838A000F0E9FB0DA000F0E6FBC4
:1039F00039480068FCF749FC02460B4637A000F046
:103A0000DDFB3C480068FCF740FC02460B463AA050
:103A100000F0D4FBBDE8104001A000F0CFBB0000D7
:103A2000200A0D004C4544313A2025642000000056
:103A300050574D3A202564200900000053746174EA
:103A4000653A2025642009004C4544323A2025641B
:103A5000200000004C4544333A202564200000003B
:103A60004C4544343A2025642000000074000020B6
:103A70005053553A202564200900000076000020AC
:103A800046414E3A202564200900000084000020B1
:103A9000202050574D3A202569200900D0000020F1
:103AA00043757272656E74204C45442773207465AB
:103AB0006D70657261747572653A202564204320CB
:103AC00009000000CC00002020204C6173743A20D3
:103AD000256920432009000088000020496E707588
:103AE0007420566F6C746167653A202566200A0D54
:103AF000000000008C00002042415420566F6C747E
:103B00006167653A202566200A0D000010B5FDF7B3
:103B100017FFBDE81040FEF785BD30B593B0092012
:103B2000012100904FF48030002404910691CDE9EA
:103B300001040225CDE90750000109906846FEF70F
:103B400001FA00B1FEE70F20CDE90A054FF48060CD
:103B5000CDE90C404FF4A0600E9001210AA8FEF7B9
:103B6000B3F800B1FEE703200F904FF400701090FF
:103B7000800111900FA8FEF711F800B1FEE7FEF7E3
:103B800067F94FF47A71B0FBF1F0FEF737FD0420CE
:103B9000FEF727FD00221146501EFDF749FF13B026
:103BA00030BD00000D48016841F00101016041682D
:103BB0000B4A1140416001680A4A114001600168E6
:103BC00021F480210160416821F4FE0141604FF43D
:103BD0001F0181600449C003086070470010024063
:103BE0000000FFF8FFFFF6FE08ED00E0F0B5026808
:103BF000144B154C154D4FF08047984205D0B842F4
:103C000003D0A04201D0A84203D122F070064A6836
:103C10003243984205D0B84203D0A04201D0A84216
:103C200003D122F44074CA68224302608A68C262E7
:103C30000A688262984201D10969016301214161E8
:103C4000F0BD0000002C01400004004000080040CE
:103C500010B50123046A8B409C430462036A8A40C6
:103C60001343036210BD10B5846842EA032224F4B2
:103C70007F440A432243826010BD826822F07002B2
:103C80000A4342F0070181607047000030B5026AC4
:103C900022F001020262026A4368846924F073051B
:103CA0000C682C4322F002058A682A430A4DA84278
:103CB0000BD122F00805CA6823F440732A434D69EA
:103CC00022F004021D438B692B43436084614968E1
:103CD0004163026230BD0000002C014030B5026A31
:103CE00022F010020262026A436884690D6824F4BB
:103CF000E64444EA05248D6822F0200242EA0512D7
:103D00000B4DA8420ED1CD6822F0800242EA051286
:103D10004D6923F4406343EA85038D6922F0400234
:103D200043EA85034360846149688163026230BD70
:103D3000002C014030B5026A22F480720262036AEC
:103D40004268C46923F4007324F073050C682C43A3
:103D50008D6843EA05230C4DA8420ED1CD6823F4AB
:103D6000006343EA05234D6922F4405242EA0512FA
:103D70008D6923F4806342EA05124260C461496898
:103D8000C163036230BD0000002C014030B5026AFF
:103D900022F480520262046A4268C3690D6823F407
:103DA000E64343EA05238D6824F4005444EA0534CD
:103DB000064DA84204D14D6922F4804242EA8512A0
:103DC0004260C36149680164046230BD002C014057
:103DD00010B5036A046A24F001040462846924F0C3
:103DE000F00444EA021423F00A020A4384610262E6
:103DF00010BD10B5036A23F0100303628369046ADF
:103E000023F4704343EA023224F0A00343EA011191
:103E10008261016210BD000010B590F839102229AE
:103E200003D0322901D0022010BD8168B1F5805F36
:103E300011D00169002901681FD0496801F07F0392
:103E4000816A4A1C82620B70C18D491E0904090CEB
:103E5000C18518D030E00269816A002A0268526880
:103E600005D0D2B20A80816A491C8162ECE7C2F3B4
:103E700008020A80816A891CF7E74A68816A4B1C3C
:103E800083620A70E0E70168CA6822F02002CA6013
:103E900090F83910322911D00168CA6822F4807272
:103EA000CA6001684A6922F001024A615FF00101BB
:103EB00080F83910FEF752FE002010BD1221F7E7FE
:103EC0002DE9F041044600680169E26821F440519F
:103ED000114301612169A0680843616908432168B1
:103EE000CA6841F20C639A430243CA602068416980
:103EF000A26921F44071114341614C492068642555
:103F0000322688423CD1FDF7C1FF00EBC00101EB36
:103F1000001061688900B0FBF1F7FDF7B7FF00EB17
:103F2000C00101EB00106168B0468900B0FBF1F000
:103F3000B0FBF5F06FF01801484307EB800106EB8A
:103F40000110B0FBF5F000F0F006FDF79FFF00EB6D
:103F5000C00101EB001061688900B0FBF1F0B0FB1B
:103F6000F5F006EB0016FDF791FF00EBC00101EB49
:103F7000001061688900B0FBF1F7FDF787FF3BE0B7
:103F8000FDF76CFF00EBC00101EB001061688900D8
:103F9000B0FBF1F7FDF762FF00EBC00101EB001091
:103FA0006168B0468900B0FBF1F0B0FBF5F06FF04E
:103FB0001801484307EB800106EB0110B0FBF5F058
:103FC00000F0F006FDF74AFF00EBC00101EB001026
:103FD00061688900B0FBF1F0B0FBF5F006EB00166C
:103FE000FDF73CFF00EBC00101EB001061688900A8
:103FF000B0FBF1F7FDF732FF00EBC00101EB001061
:1040000061688900B0FBF1F0B0FBF5F06FF01801CA
:10401000484307EB800108EB0110B0FBF5F0216885
:1040200000F00F0030448860BDE8F08100380140A6
:1040300090F83910122903D0322901D0022070479C
:104040008168B1F5805F016A0BD04A1C0262026888
:1040500009785160C18C491E0904090CC1840ED035
:1040600017E009880268C1F308015160016900295D
:10407000016A02D0491C0162ECE7891CFBE7016878
:10408000CA6822F08002CA600068C16841F040013D
:10409000C160002070472DE9F0471D4690460E464E
:1040A0000446FDF747FC07465FEA08004FF00009A9
:1040B0004FF0010808D030E0681C05D095B1FDF73D
:1040C00039FCC01BA8420DD82068006836EA000001
:1040D000F2D127E0681C20D025B1FDF72BFCC01BD6
:1040E000A8421AD92068C16821F08001C160206807
:1040F000C16821F02001C1602068C16821F480718D
:10410000C1602068416921F00101416184F8398072
:1041100084F838900320BDE8F0872068006836EA0C
:104120000000D7D00020F6E770B51E480168890668
:1041300037D5016821F0200101601B4C0026B4F93D
:10414000C800C72801DBA4F8C8601649091D086823
:10415000164D174AC0B268701288012A00D1086053
:10416000B4F9C81060541049B5F90220E4398854F4
:10417000B4F8C810521C491C09B2A4F8C8106A80CF
:104180000D2801D0C82907DB012028700648FBF75D
:10419000E0FFA4F8C8606E80BDE870400548FEF7F7
:1041A0000DBC70BD0048004000030020020000204C
:1041B00000000020DC010020FEE700000FB4054BEA
:1041C00010B503A9044A029800F0DEF810BC5DF8AF
:1041D00014FB0000D54C0008680000200048704720
:1041E000E000002002E008C8121F08C1002AFAD12E
:1041F00070477047002001E001C1121F002AFBD167
:10420000704700002DE9FF5F82B00021DDE9043036
:10421000020DDDF840B0034318D044F61050A2F26E
:10422000FF3242431514119801281FD0A5EB0B0053
:10423000401C5FEA000A4FF000064E4FDFF838914D
:10424000B046504615D5CAF1000413E01198012478
:104250004AA3012801D16FEA0B010298119AC0E923
:104260000031C0E9024206B0BDE8F09FCBF100008A
:10427000DFE704460021404A491842EB0450CDE9EB
:10428000001012E0E00707D032463B464046494660
:10429000FCF787F98046894632463B461046194668
:1042A000FCF77FF906460F466410002CEAD1DDE9E1
:1042B0000401DDE90023BAF1000F06DAFCF771F919
:1042C00042464B46FCF76DF905E0FCF7DCF9424647
:1042D0004B46FCF7D8F904460E460022284BFCF763
:1042E00059FA03D84FF0FF30014607E00022254B72
:1042F00020463146FCF7AEF8FCF734FA102409E00A
:10430000002C0ADB0A220023FBF7E8FF039B303274
:104310001A55641E50EA0102F2D1641C039AC4F1DA
:1043200011031444119A012A03D0012208430DD12C
:104330000AE0084304D000204FF0110B119072E7FF
:10434000A3EB0B056D1E0DE05B4504DD4FF0000295
:1043500005F1010504E003DA4FF00002A5F10105C3
:10436000002AECD002981199C0E90231C0E9004559
:1043700079E70000000014400000F03F300000002A
:104380000000F0430000E03F2DE9FF4F95B09B4651
:104390008946064600250FE2252877D100242746C6
:1043A000F84A0121059400E0044316F8013F203B40
:1043B00001FA03F01042F7D130782A2811D06FF0BB
:1043C0002F033078A0F13002092A16D8059A44F05C
:1043D000020402EB820203EB42021044761C0590B9
:1043E000EFE759F8042B0592002A03DA504244F40F
:1043F0000054059044F00204761C30782E2816D123
:1044000016F8010F44F004042A280DD06FF02F0293
:104410003078A0F13003092B09D807EB870302EBB2
:104420004303C718761CF3E759F8047B761C3078F1
:104430006C280FD006DC4C2817D068280DD06A28CD
:1044400014D104E0742810D07A280FD10DE044F480
:1044500000140AE044F4801401E044F4401472783B
:10446000824202D104F58014761C761C30786628CE
:104470000BD013DC582877D009DC002875D04528EC
:10448000F6D04628F4D047281AD19DE118E06328D9
:1044900035D0642879D0652812D195E1702873D081
:1044A00008DC6728F1D069286FD06E280DD06F28FE
:1044B00006D1B5E073282CD0752875D0782874D033
:1044C0005A46179990476D1C75E1C4F302500228B3
:1044D00009D003280DD0D9F8001004280DD00D60A4
:1044E00009F1040967E1D9F80010EA17C1E900529F
:1044F000F6E7D9F800100D80F2E70D70F0E719F833
:10450000041B8DF8001000208DF80100EA46012000
:1045100003E059F804AB4FF0FF3061074FF00001A2
:1045200002D40DE008F101018846B9420FDA804556
:10453000F8DB1AF808100029F4D108E008F10101AD
:1045400088468142FADB1AF808100029F6D105984E
:104550005B46A0EB080721463846179A00F094FA0C
:10456000284400EB080507E04DE029E10DE01AF8CA
:10457000010B5A4617999047B8F10108F7D25B46EC
:1045800021463846179A13E142E00A220092C4F30A
:1045900002524FF0000A022A08D059F804CB032A2D
:1045A0004FEAEC710AD00DE029E02AE009F1070199
:1045B00021F00702F2E802C1914609E00FFA8CFCF3
:1045C0004FEAEC71042A03D14FFA8CFC4FEAEC71EC
:1045D000002907DA0A460021DCF1000C61EB020138
:1045E0002D2202E0220504D52B228DF80420012281
:1045F00003E0E20701D02022F7E7904659E00A21C4
:1046000002E010220DE010214FF0000A00910BE0B3
:1046100010224FF0000A44F004040827009203E03F
:1046200008224FF0000A0092C4F30252022A05D079
:1046300059F804CB0021032A08D009E009F1070149
:1046400021F00702F2E802C1914605E01FFA8CFC56
:10465000042A01D10CF0FF0C4FF00008220728D5E6
:10466000702806D0009B83F0100353EA0A0305D09C
:104670000EE040228DF80420012208E05CEA0102ED
:1046800006D030228DF804208DF8050002229046D5
:10469000009B83F0080353EA0A030AD15CEA010293
:1046A00001D1620705D530228DF804204FF00108B2
:1046B0007F1E582804D034A003900EA802900DE06D
:1046C00036A0F9E753466046009AFBF707FE84469A
:1046D0000398825C0298401E029002705CEA01001E
:1046E000F0D1029806A9081A00F1200A600702D545
:1046F00024F4803400E00127574502DDA7EB0A00CF
:1047000000E0002000EB0A01009005984144401AA7
:104710000590E00306D45B462146179A059800F001
:10472000B3F90544002706E001A85A46C05D179971
:1047300090476D1C7F1C4745F6DBE0030CD55B46BC
:104740002146179A059800F09FF9054404E03020AF
:104750005A46179990476D1C0099481E00900029F1
:10476000F5DC08E0029802995A460078491C02914B
:10477000179990476D1CBAF10001AAF1010AF1DC0A
:1047800065E1000009280100303132333435363715
:10479000383961626364656600000000303132338D
:1047A000343536373839414243444546000000002D
:1047B00000F058F90544761C307800287FF4ECAD01
:1047C00019B02846BDE8F08F620700D4062709F12A
:1047D000070222F0070CFCE80223E14603F0004840
:1047E0005FEA080C02D00FF2702C0DE05FEA045C67
:1047F00002D50FF2682C07E05FEAC47C02D00FF20A
:10480000602C01E0AFF2700C4FF0FF3823F0004352
:10481000CDF850C065280CD006DC452809D04628C4
:104820001DD047283DD13DE0662818D067287ED1AD
:1048300038E00021112F01DB112000E0781CCDE9C8
:10484000000106A90EA8FFF7DDFCDDE90F010E9AB5
:1048500003910021009207F1010A04914DE04FF00D
:1048600000400097CDE9011006A90EA8FFF7CAFC89
:10487000DDE90F0203920E9B11990022DDF80CA0D6
:104880000093049211B9791C00EB010AB7EB0A00FE
:1048900004D4C0F1FF3007F1010A0490AAEB07002D
:1048A000019044E0012F00DA01270021112F01DDE2
:1048B000112000E03846CDE9000106A90EA8FFF757
:1048C000A1FCDDE90F010E9A0391002104910092F1
:1048D000BA4621070CD40399514500DA8A46BAF149
:1048E000010F05DD009AAAF10101515C302908D0C1
:1048F000B84202DA10F1040F06DA0121CDE9011005
:1049000015E0AAF10101E9E7002805DC049901445A
:104910000491AAEB000102E0411C514500DD8A46EA
:104920000499401A401C01904FF00040029020076B
:1049300004D40198504501DBCDF8048000208DF8A7
:104940004F0002980DF14F07B0F1004F25D02B20FA
:104950000E9002984FF0020800280CDA40420290B4
:104960002D200E9007E00A210298FBF7A1FC3031C0
:10497000029007F8011DB8F10001A8F10108F2DC6E
:1049800002980028EFD1791E0E980870307800F058
:10499000200040F0450007F8020D12A8C01B00F1EE
:1049A00007081498007800B1012000EB0A01019873
:1049B00001EBE07105984144401A401E0590E00368
:1049C00006D45B462146179A059800F05DF8054429
:1049D0001498007818B15A46179990476D1CE00357
:1049E00024D55B462146179A059800F04DF80544FA
:1049F0001CE00498002807DBDDE90301884203DDA1
:104A00000098405C179901E0179930205A4690476A
:104A1000049805F10105401C04900198401E019086
:104A200004D12E205A46179990476D1CBAF1000107
:104A3000AAF1010ADDDC05E017F8010B5A461799C7
:104A400090476D1CB8F10001A8F10108F4DC5B4649
:104A50002146179A0598ABE62D0000002B000000B8
:104A6000200000002DE9F041044600251E461746AF
:104A7000880404D405E039462020B0476D1C641E2C
:104A8000F9D52846BDE8F0812DE9F041044600251E
:104A90001E469046C80301D5302700E02027880431
:104AA00004D505E041463846B0476D1C641EF9D573
:104AB0002846BDE8F08110B50C460A220021FBF71C
:104AC000A7FB206010BD10B50C460A220021FBF7A1
:104AD0009FFB208010BD00000C4900220A600C4A98
:104AE0001368834313600B68022BFCD313680343E2
:104AF00013600A680F2AFCD3054A121F126802408D
:104B000008683C28FCD3104670470000240400408D
:104B10000C080140F0B5002507462C460126384612
:104B2000FFF7DAFF18B106FA04F02843C5B2641C97
:104B3000E4B2082CF3D32846F0BDF0B501250746B2
:104B40008D400024A8B200F05BF800282BD1A9B258
:104B5000CC2000F0ADF8A9B2BE2000F0A9F80026E4
:104B6000A8B2FFF7D7FFB855002184EA000202F08F
:104B70000102012A01D184F018044FEA540401D142
:104B800044F0800401F10101C9B24FEA5000082944
:104B9000EBD3761CF6B2082EE2D3A8B2FFF7BAFF29
:104BA000844201D10020F0BD0320F0BD0CB50146C8
:104BB0006846FFF7C2FF10B14FF4A0600CBD9DF82E
:104BC00000109DF8012001F00F00090941EA0211CF
:104BD00049B2002908DAC94301EB8101490040F0DC
:104BE000F000404240B202E001EB8101490000EBDD
:104BF00080004000C21700EB127001EB20100CBDCA
:104C000030B5134B1968014201D1022030BD104A62
:104C1000121D1168814311600E4900240C604FF48D
:104C2000F0740D68A542FCD314680443146040F28C
:104C300026220C689442FCD31A6802404FF470702C
:104C40000B688342FCD30AB1012030BD002030BD87
:104C5000080801402404004010B501248440A0B29B
:104C6000FFF7CEFF002808D1A1B2CC2000F020F839
:104C7000A1B2442000F01CF8002010BD0A4B10B572
:104C800000221A60094A14688C4314601C68022CC4
:104C9000FCD310B110680843106018683C28FCD39E
:104CA00010680843106010BD240400400C08014047
:104CB000F0B500240F4606465FF0010505FA04F042
:104CC00030403946FFF7DAFF641CE4B2082CF5D314
:104CD000F0BD000013B54FF47A7301226946024813
:104CE000FDF73EFF00981CBDDC01002086B0FCF7FC
:104CF0002FFEFEF712FFFEF77DFBFEF74FFCFEF7DF
:104D000043FB3C483A4901604FF0FF3141604FF4AA
:104D100080718160FDF7D6FB00B1FEE7FEF710FC65
:104D2000344835495030002401604621C0E901145F
:104D30004FF47A71C0E90314FDF7A0FC00B1FEE75F
:104D40004FF4805000902B4869465030FDF7D3FC5B
:104D500000B1FEE72020CDE90404264804A9503024
:104D6000FDF764FC00B1FEE7224D2448C8352860F9
:104D70004FF4E130C5E901040C20EC60C5E90440C2
:104D8000AC612846EC61FDF786FE00B1FEE72868BD
:104D9000C16841F02001C160164800218C30FDF748
:104DA000F3FD144804218C30FDF7EEFD1148082175
:104DB0008C30FDF7E9FD0F480C218C30FDF7E4FD48
:104DC0000C4800211430FDF7DFFD0A485030FDF794
:104DD00085FC08483038FCF705FB09A0FFF7EEF921
:104DE000FEF748FAFBF732FFFBF76EFEF8E700002C
:104DF000002800401401002000040040004800404A
:104E00004D656F7721204B69736F737665742056FB
:104E100032206861732073746172746564200A0DB6
:104E20000000000010B5C8210A48FBF792F90A48B3
:104E3000FBF7A6F9024608490648FBF795F905482D
:104E4000FBF79EF905490880FEF7B4FCBDE8104069
:104E5000FCF7C0B8CA0300201C0200205C00002040
:104E60002000000000000000000102030406070803
:104E7000090000000001020304004040404040409F
:104E8000404040414141414140404040404040401D
:104E90004040404040404040404005020202020283
:104EA000020202020202020202022020202020202E
:104EB0002020202002020202020202909090909094
:104EC0009010101010101010101010101010101062
:104ED00010101010100202020202028888888888CE
:104EE00088080808080808080808080808080808C2
:104EF0000808080808020202024000007A4E000872
:104F0000204F000800000020E4000000E4410008F9
:104F100004500008E400002014080000F4410008D8
:104F200000000000000000002D2B2D2D00000000CF
:104F30000000000000000000000000000000000071
:104F4000000000000000000000000000E803000076
:104F5000E8030000800C0000E8030000BCDE000055
:104F6000BCDE0000BCDE0000BCDE0000F0EB000098
:104F700068BF00000000000000000000000000000A
:104F80000000000000000000000000000000000021
:104F900000000000000000000100000000000A0006
:104FA00000000000C8000000000000000000000039
:104FB0006301000009010000570300000000000029
:104FC00000000000000000006E6300000000000010
:104FD00000006E63000000000000000001000000FF
:104FE00000000000000000000000000000000000C1
:104FF0000000000000A24A040000000000000000C1
:0450000000000000AC
:04000005080000ED02
:00000001FF
